:020000040000FA
:10000000D62083160313FF30850086018700880001
:10001000890183120313DA21E430A800C930A90052
:100020001B30A4003630A5001B30AA003630AB00D0
:100030003A200C28ED215030A300D0214130A300FC
:10004000D0215330A300D0215330A300D0215F2012
:1000500041210800ED214630A300D0214130A3000A
:10006000D0214930A300D0214C30A300D0215F2003
:1000700076210800280883160313870083120313D0
:1000800029088316031388008312031324088700AA
:10009000250888000708A6000808A700AC01260864
:1000A0003F392A06AC0427083F392B06AC04ED2162
:1000B000AC08031D2A20AC0803191A2008002030C0
:1000C000A300D021280EC320A300D0212808C320DC
:1000D000A300D0212030A300D021290EC320A300EB
:1000E000D0212908C320A300D0212030A300D02193
:1000F000240EC320A300D0212408C320A300D021B4
:100100002030A300D021250EC320A300D021250834
:10011000C320A300D0214030A300F6212A0EC32023
:10012000A300D0212A08C320A300D0212030A3009F
:10013000D0212B0EC320A300D0212B08C320A30065
:10014000D0212030A300D021260EC320A300D0212F
:100150002608C320A300D0212030A300D021270EE1
:10016000C320A300D0212708C320A300D021203022
:10017000A300D0212C0EC320A300D0212C08C32023
:10018000A300D02108000F398207303431343234D3
:100190003334343435343634373438343934413404
:1001A0004234433444344534463408008316031340
:1001B000811283160317880183160317890183169A
:1001C000031371308F008312031308000800E8281E
:1001D000E928EA2808000530A000A00BED28080057
:1001E0000B30A000A00BF228F52808001F30A0005B
:1001F000A00BF828FB2808004130A000A00BFE2827
:1002000008008330A000A00B032906290800053050
:10021000A1004130A000A00B0B29A10B0929080067
:100220000330A100DC30A000A00B1429A10B12297F
:100230001929000008002F30A1001B30A000A00BDE
:100240001F29A10B1D2908001330A100AE30A0000A
:10025000A00B2829A10B2629000008001A30A100B4
:10026000FF30A000A00B3229A10B302900000800AC
:100270005F30A1008B30A000A00B3C29A10B3A29D4
:100280000800C630A100A730A000A00B4529A10B93
:1002900043294A294B2900000800C730A2008F30AB
:1002A000A1000130A000A00B5329A10B5129A20BE2
:1002B0004F2908000E30A2003130A100C130A0004B
:1002C000A00B6029A10B5E29A20B5C29000008008D
:1002D0002E30A200BD30A1002530A000A00B6E2959
:1002E000A10B6C29A20B6A2900000800A730A2000C
:1002F000A430A1001730A000A00B7C29A10B7A2903
:10030000A20B7829832900000800FE30A200F630F5
:10031000A1001430A000A00B8B29A10B8929A20BEE
:100320008729922900000800B930A200E630A10018
:100330004D30A000A00B9A29A10B9829A20B962959
:10034000A129A22900000800AB30A200CF30A100F3
:10035000BB30A000A00BAA29A10BA829A20BA6299B
:10036000B129B229B3290800F130A200DD30A10083
:10037000F930A000A00BBA29A10BB829A20BB6290D
:100380000630A000A00BC22900000800043089003C
:100390002308860000308900F62004308900080018
:1003A000053089002308860001308900F6200530D9
:1003B000890008004D213830A300C6210C30A3006D
:1003C000C6210130A300C6210630A300C621023099
:1003D000A300C6211B210800EC290130A300C6217F
:1003E0001B2108000130A300C6210800A317C6295D
:00000001FF
