:020000040000FA
:10000000F92083160313FF308500860187008800DE
:10001000890183120313FD21E430A800C930A9002F
:100020000030A4000030A5000030AA000030AB0072
:100030006120E430A800C930A9001230A4001230B9
:10004000A5003630AA001B30AB006120E430A800C8
:10005000C930A9000930A4002430A5002D30AA0021
:100060002D30AB006120E430A800C930A9001B305E
:10007000A4003630A5001B30AA003630AB0061204A
:100080000C2810225030A300F3214130A300F321AB
:100090005330A300F3215330A300F32182206421C5
:1000A000080010224630A300F3214130A300F321C1
:1000B0004930A300F3214C30A300F3218220B72163
:1000C0000800831603132808870029088800831274
:1000D000031324088700250888000708A6000808DD
:1000E000A700AC0126083F392A06AC0427083F398F
:1000F0002B06AC041022AC08031D5120AC080319D8
:10010000412008002030A300F321280EE620A300A0
:10011000F3212808E620A300F3212030A300F321D7
:10012000290EE620A300F3212908E620A300F321ED
:100130002030A300F321240EE620A300F32124089D
:10014000E620A300F3212030A300F321250EE620B2
:10015000A300F3212508E620A300F3214030A300EB
:1001600019222A0EE620A300F3212A08E620A30084
:10017000F3212030A300F3212B0EE620A300F3216E
:100180002B08E620A300F3212030A300F321260E44
:10019000E620A300F3212608E620A300F321203067
:1001A000A300F321270EE620A300F3212708E62071
:1001B000A300F3212030A300F3212C0EE620A3009E
:1001C000F3212C08E620A300F32108000F39820751
:1001D00030343134323433343434353436343734E3
:1001E0003834393441344234433444344534463469
:1001F00008008316031381128316031788018316E0
:10020000031789018316031371308F0083120313C0
:10021000080008000B290C290D2908000530A00052
:10022000A00B102908000B30A000A00B15291829DD
:1002300008001F30A000A00B1B291E290800413018
:10024000A000A00B212908008330A000A00B2629C4
:10025000292908000530A1004130A000A00B2E295B
:10026000A10B2C2908000330A100DC30A000A00B5A
:100270003729A10B35293C29000008002F30A100A7
:100280001B30A000A00B4229A10B4029080013300D
:10029000A100AE30A000A00B4B29A10B4929000002
:1002A00008001A30A100FF30A000A00B5529A10BB7
:1002B0005329000008005F30A1008B30A000A00B84
:1002C0005F29A10B5D290800C630A100A730A0005E
:1002D000A00B6829A10B66296D296E290000080072
:1002E000C730A2008F30A1000130A000A00B7629FA
:1002F000A10B7429A20B722908000E30A200313024
:10030000A100C130A000A00B8329A10B8129A20B61
:100310007F29000008002E30A200BD30A10025304A
:10032000A000A00B9129A10B8F29A20B8D29000001
:100330000800A730A200A430A1001730A000A00B35
:100340009F29A10B9D29A20B9B29A629000008002B
:10035000FE30A200F630A1001430A000A00BAE29A0
:10036000A10BAC29A20BAA29B52900000800B930BD
:10037000A200E630A1004D30A000A00BBD29A10BCA
:10038000BB29A20BB929C429C52900000800AB303C
:10039000A200CF30A100BB30A000A00BCD29A10B43
:1003A000CB29A20BC929D429D529D6290800F13097
:1003B000A200DD30A100F930A000A00BDD29A10BC7
:1003C000DB29A20BD9290630A000A00BE5290000EB
:1003D00008000430890023088600003089001921B4
:1003E00004308900080005308900230886000130A8
:1003F0008900192105308900080070213830A300D8
:10040000E9210C30A300E9210130A300E9210630E5
:10041000A300E9210230A300E9213E2108000F2AB0
:100420000130A300E9213E2108000130A300E921A9
:060430000800A317E929F2
:00000001FF
